:1000030047414D45204F56455220200054455452F8
:100013004953202000010204081020408000000002
:1000230000000000000000000002010000000101C8
:1000330000000000000000000000000000000000BD
:1000430000000201000000010100000000000000A8
:10005300000000000000000000000002010000009A
:10006300010100000000000000000000000000008B
:100073000000000002010000000101000000000078
:100083000000000000000000000000000102010168
:10009300000000000000000000000000000000005D
:1000A3000001000000000200000000010000000049
:1000B3000100000000000000000000000001010238
:1000C300010000000000000000000000000001002B
:1000D3000000000100000000020000000001000019
:1000E300000000000000000000000000010000000C
:1000F30000020000000001010000000000000000F9
:1001030000000000000000000001020100000100E7
:1001130000000000000000000000000000010100DA
:1001230000000002000000000100000000000000C9
:1001330000000000000000000100000102010000B7
:1001430000000000000000000000000000000000AC
:100153000100000000020000000101000000000097
:100163000000000000000000010000000001020187
:10017300000000000000000000000000000000007C
:100183000000010100000002000000000100000067
:10019300000000000000000000000000000000015B
:1001A3000201000000000100000000000000000048
:1001B3000000000000010000000201000000010037
:1001C300000000000000000000000000000000002C
:1001D3000001020000000001010000000000000017
:1001E3000000000000000100000001020000000107
:1001F30000000000000000000000000000000101FA
:1002030000000000020100000000000000000000E8
:1002130000000000000000000100000000020100D7
:1002230000000001000000000000000000000000CA
:1002330000000000000002010000010100000000B6
:1002430000000000000000000001000000000102A7
:10025300000000000100000000000000000000009A
:100263000000000101000001020000000000000086
:10027300000000000000000000000000010000007A
:100283000002010000000100000000000000000067
:100293000000000000000000000102010000000156
:1002A300000000000000000000000000000001004A
:1002B3000000010200000000010000000000000037
:1002C3000000000000000001000000010201000026
:1002D300000000000000000000020302030203020A
:1002E30003020201040202000301030203010301EA
:1002F30002010301020103020301030203010301DB
:1003030002010302030103010201030203010301CA
:100313000200000000000000003078783030003028
:10032300006C6C6C00000000006C6CFE6CFE6C6C6E
:1003330000307CC0780CF8300000C6CC183066C69C
:1003430000386C3876DCCC76006060C000000000BA
:100353000018306060603018006030181818306082
:100363000000663CFF3C660000003030FC3030008B
:10037300000000000000303060000000FC000000BE
:10038300000000000000303000060C183060C08010
:10039300007CC6CEDEF6E67C00307030303030FCB8
:1003A3000078CC0C3860CCFC0078CC0C380CCC78C2
:1003B300001C3C6CCCFE0C1E00FCC0F80C0CCC7872
:1003C300003860C0F8CCCC7800FCCC0C183030304E
:1003D3000078CCCC78CCCC780078CCCC7C0C187062
:1003E300000030300000303000003030000030308A
:1003F30060183060C0603018000000FC0000FC0092
:10040300006030180C1830600078CC0C18300030C5
:10041300007CC6DEDEDEC078003078CCCCFCCCCCF1
:1004230000FC66667C6666FC003C66C0C0C0663C39
:1004330000F86C6666666CF800FE6268786862FEB7
:1004430000FE6268786860F0003C66C0C0CE663E1D
:1004530000CCCCCCFCCCCCCC007E18181818187E61
:10046300001E0C0C0CCCCC7800E6666C786C66E64F
:1004730000F06060606266FE00C6EEFEFED6C6C691
:1004830000C6E6F6DECEC6C600386CC6C6C66C38F5
:1004930000FC66667C6060F00078CCCCCCDC781C19
:1004A30000FC66667C6C66E60078CCE0701CCC7859
:1004B30000FCB4303030307800CCCCCCCCCCCCFC8D
:1004C30000CCCCCCCCCC783000C6C6C6D6FEEEC6AB
:1004D30000C6446C38386CC600CCCCCC783030784D
:1004E30000FEC68C183266FE00786060606060783B
:1004F30000C06030180C0602007818181818187815
:100503000010386CC600000000000000000000006E
:10051300FF30301800000000000000780C7CCC7C19
:10052300006060607C66667C00000078CCC0CC789C
:10053300000C0C0C7CCCCC7C00000078CCFCC0788C
:1005430000386C60F06060F00000007CCCCC7C0C68
:10055300F860607C66666666003000703030307824
:10056300000C000C0C0C0C6C386060666C786C66CC
:100573000070303030303078000000CCFEFED6C63C
:10058300000000F8CCCCCCCC00000078CCCCCC78EC
:100593000000007C66667C606000007CCCCC7C0C38
:1005A3000C0000DC766660F00000007CC0780CF87C
:1005B3000010307C30303418000000CCCCCCCC7C24
:1005C300000000CCCCCC7830000000C6D6FEFE6C18
:1005D300000000C66C386CC6000000CCCCCC7C0C90
:1005E300F80000FC983064FC001C3030E030301C14
:1005F300006CFEFEFE7C381000E030301C3030E032
:100603000076DC0000000000000010386CC6C6FE57
:0106130000E6
:10121900010900014C05014D00014B0001080101C4
:051229000A1E014F0048
:100D62000508E5086432705D20A41DC3E5096480AE
:100D72009483500A120FFFEF600405098003E4F523
:100D8200097F01120614D2A420A21AE53445337059
:100D92000D1211A5EF6007154C7F01120614D2A2A5
:100DA2007F0112061420A31AE5424541700D12116B
:100DB200C6EF6007054C7F01120614D2A37F011211
:100DC2000614E4F50820A003754F0120A103755015
:020DD2000222FB
:0A11E700EF1FAC0670011E4C600CF7
:0C11F100756464AD641564ED60EC80F77B
:0311FD00020D627E
:020E9B00AD07A1
:100E9D00C291E4FBC290ED25E02413F8E6FE08E6CE
:100EAD00F4FFEEF4FEEFA803088005C333CE33CE76
:100EBD00D8F9EE339292ED25E02433F8E6FE08E6FC
:100ECD00F4FFEEF4FEEFA803088005C333CE33CE56
:0E0EDD00D8F9EE339293D2900BBB10B8D2919D
:010EEB0022E4
:040E3E008E5F8F60D4
:100E4200E4F561F562C3E5629560E561955F50483E
:100E5200E4F5637580FF75B0FFAF63120E9BAF635D
:100E6200EF3395E0FE74182FF58274003EF583E4AB
:100E720093F4F580F5B07F027E001211E77580FFD2
:100E820075B0FF0563C3E5636480948840C505625D
:080E9200E56270B1056180AD5D
:010E9A002235
:0C103B00E4FDFCFF121047E4FDFC7F0107
:061047008D828C83AA07D4
:10104D00E4FB7CFF7DFFAF82AE83120A16EAC43348
:10105D0054E0240BF8EB25E028F8A60608A6070BAC
:03106D00BB10DFD6
:01107000225D
:020614008F65F0
:10061600121042E509FD3395E0FCED25E0FBEC33D5
:10062600FAAF4BEF3395E0FEEF7803C333CE33CE0C
:10063600D8F924DCF58274023EF583E5822BF58237
:10064600E5833AF583E493FBED25E0FDEC33FCAF5F
:100656004BEF3395E0FEEF7803C333CE33CED8F9B4
:1006660024DDF58274023EF583E5822DF582E5836D
:100676003CF583E493C39B04F551E4F566E4F56722
:10068600C3E5516480F8E567648098400302077704
:10069600AF4BEF3395E0FE90002075F064EF120A41
:1006A6005EEE75F064A42583F583AF09EF3395E01C
:1006B600FE75F019EF120A5EEE75F019A42583F5A2
:1006C60083C083C082EF25E0FDEE33FCAF4BEF33F2
:1006D60095E0FEEF7803C333CE33CED8F924DDF5AB
:1006E6008274023EF583E5822DF582E5833CF5832F
:1006F600E493FF3395E0FEAD67ED3395E0FCC3EF81
:100706009DFFEE9CFED082D08375F005EF120A5E47
:10071600EE75F005A42583F583AF66EF3395E0FE0D
:10072600E5822FF582E5833EF583E493D3648094D6
:10073600804039E565C43354E0240BF8E566254C62
:1007460025E028F8C000E6FC08E6FDE567254DFF34
:1007560074017E00A807088005C333CE33CED8F9CE
:10076600FFEC4EFEED4FD000A60608F60567020622
:0C077600860566E56664056003020683E4
:010782002254
:020B82008F538F
:100B8400120EEC7C007D07120A288D4B850A50E575
:100B940009FD3395E0FCED25E0FBEC33FAAF4BEFB8
:100BA4003395E0FEEF7803C333CE33CED8F924DC9B
:100BB400F58274023EF583E5822BF582E5833AF5EE
:100BC40083E493FBED25E0FDEC33FCAF4BEF339571
:100BD400E0FEEF7803C333CE33CED8F924DDF582BB
:100BE40074023EF583E5822DF582E5833CF583E4CA
:100BF40093C39B04F551C374109551F554F54D807E
:100C040020C3E55464809480401CEF601985544DE2
:100C1400AF53120614AF50EF3395E0FE120E3E159B
:100C24005412116380DBC3E552648094845003053D
:070C34005222150AE4F552FB
:010C3B002296
:1010A600E4FF7E04EE25E0242BF8E6FC08E6FDEEE0
:1010B60025E0240BF8E6FA08E6FBEA5CFCEB5DD3D8
:1010C6009400EC940040010F0EBE0CD8EF7002FFA6
:0310D600227F0175
:0110D90022F4
:10116300D3E54D648094804015154D7F011206141C
:10117300054D1210A6EF70037F01227F00227F002E
:011183002249
:10118400E4F5537D04ED25E0240BF8E6FEEEC413EC
:101194001313540130E0037F01220DBD0CE77F00DF
:0111A4002228
:100ABF00854D53E509FD3395E0FCED25E0FBEC3367
:100ACF00FAAF4BEF3395E0FEEF7803C333CE33CE5F
:100ADF00D8F924DCF58274023EF583E5822BF5828A
:100AEF00E5833AF583E493FBED25E0FDEC33FCAFB2
:100AFF004BEF3395E0FEEF7803C333CE33CED8F907
:100B0F0024DDF58274023EF583E5822DF582E583BF
:100B1F003CF583E493C39B04F551AF51EF3395E05C
:100B2F00FEAD4DED3395E0FCED2FFFEC3EFEAD53EA
:100B3F00ED3395E0FCC3ED9FEE6480F8EC64809894
:100B4F005030E4FD7C04EC25E0240BF8E6FE08E6CB
:100B5F00A853088005CEC313CE13D8F930E0010D8A
:100B6F000CBC0CE2BD0807AF53120C3C80AC055314
:020B7F0080A84C
:010B81002251
:100FFF00E4FDFCE534AE33A804088005CEC313CE60
:10100F0013D8F920E013E542AE41A804088005CEBD
:10101F00C313CE13D8F930E0010D0CBC10D5C3EDBE
:0B102F006480948240037F00227F0158
:01103A002293
:1011A500D3E54C648094804015154C7F01120614DC
:1011B500054C1210A6EF70037F01227F00227F00ED
:0111C5002207
:1011C600C3E54C648094905015054C7F01120614BB
:1011D600154C1210A6EF70037F01227F00227F00BC
:0111E60022E6
:020C3C008F54D3
:100C3E007D04ED25E0240BF8E6FE08E6FBAA06E5AA
:100C4E005404FFEBA807088005CEC313CE13D8F9C2
:100C5E00FBAA06A854088005C333CE33CED8F9FBC1
:100C6E00AA06ED25E0240BF8C000E6FE08E6FFC359
:100C7E0074109554FCEFA804088005C333CE33CE10
:100C8E00D8F9D000A60608F6ED25E0240BF8C00032
:100C9E00E6FE08E6A804088005CEC313CE13D8F9E5
:100CAE00D000A60608F6ED25E0240BF8C000E6FEFF
:100CBE0008E6FFEE4AFEEF4BD000A60608F60DED55
:070CCE00640C6003020C40FE
:010CD50022FC
:1010DA00EFC43354E02413F8ED25E028F8C000E605
:1010EA00FC08E6FDAF0374017E00A807088005C36B
:1010FA0033CE33CED8F9FFEC4EFEED4FD000A60624
:03110A0008F622C2
:10107100EFC43354E02413F8ED25E028F8C000E66E
:10108100FC08E6FDAF0374017E00A807088005C3D4
:1010910033CE33CED8F9F4FFEEF45CFEED5FD00031
:0510A100A60608F6227E
:0D113B00FF756400EF5401F565E4FBFAFF59
:101148008C608D61A907E565640145647003021030
:0B115800DAAF01AD61AC601210712233
:100F80008F588C598D5A8B828A83EFFD3395E0FC04
:100F9000756400E5825401F565AB5AAA59E4FF1265
:100FA0001148E558FD3395E0FCE583A2E713E5829F
:100FB000137564005401F565AB5AAA597F010211FB
:010FC00048E8
:07110D00E4FF1211147F0141
:02111400AD0725
:101116007C04EDC43354E0240BF8EC25E028F8C039
:1011260000E6FE08E625E0FFEE33D000F608A60747
:041136000CBC0CDE03
:01113A002292
:0808C8008B538A5489558D56AB
:1008D000E4F559F55AF55BF55CF55D12103CAB5348
:1008E000AA54A955AF5AEF3395E08F82F5831209C8
:1008F000E970030209E8C3E55D6480948350020552
:100900005DE4F558E4F55BF557AF57EF3395E0FE3E
:10091000C374079FFFE49EFEAB53AA54A955AD5A7A
:10092000ED3395E08D82F5831209E975F008A42F67
:10093000F582E5F03EF583E5822414F582E5833403
:1009400002F583E493FFC374079558FEEFA80608E9
:100950008002C313D8FC5401F55964017026E55791
:10096000FD3395E0FCE55D12113BE557FD3395E065
:10097000FCE55DA2E713FF756400EF5401F5657FA8
:1009800001121148E559B40102055B0557C3E5574B
:10099000648094885003020909E55B7004055C805B
:1009A00003E4F55CC3E55C648094824016AB53AA13
:1009B00054A955AF5AEF3395E08F82F5831209E9B8
:1009C000B4200AAF567E00120E3E12110D0558C318
:1009D000E558648094885003020904E55DB403037C
:0809E000E4F55D055A0208DE92
:0109E80022EC
:080783008B538A5489558D56F1
:10078B00E4F559F55AF55BF55CF55DF55E12103C39
:10079B00120EEC7C007D04120A288D5D120EEC7C8F
:1007AB00007D04120A288D5EE55E655D60EEAB533D
:1007BB00AA54A955AF5AEF3395E08F82F5831209EE
:1007CB00E970030208C7E4F558E4F55BF557AF573A
:1007DB00EF3395E0FEC374079FFFE49EFEAB53AA75
:1007EB0054A955AD5AED3395E08D82F5831209E985
:1007FB0075F008A42FF582E5F03EF583E58224140D
:10080B00F582E5833402F583E493FFC374079558AF
:10081B00FEEFA806088002C313D8FC5401F55964F7
:10082B00017017E557FD3395E0FCE55D12113BE5D3
:10083B0057FD3395E0FCE55D8015E557FD3395E0FD
:10084B00FCE55E12113BE557FD3395E0FCE55EA23E
:10085B00E713FF756400EF5401F5657F0112114832
:10086B00E559B40102055B0557C3E55764809488CD
:10087B0050030207D9E55B7004055C8003E4F55C6B
:10088B00C3E55C648094824016AB53AA54A955AF60
:10089B005AEF3395E08F82F5831209E9B4200AAF42
:1008AB00567E00120E3E12110D0558C3E55864809A
:0C08BB00948850030207D4055A0207B9C4
:0108C700220E
:020F39008F53D4
:100F3B00E4F555E4F554120EEC7C007D03120A28FF
:100F4B00ED04F556E555FD3395E0FCE556FB339581
:100F5B00E0FAAF54120F80AF537E00120E3E0554D1
:100F6B00C3E5546480948840CD0555C3E555648032
:040F7B00949040BF4F
:010F7F00224F
:060DD4008F538C548D5575
:100DDA00AF531553EF605C120EEC7C007D0A120AC9
:100DEA00288D57E4F556D3E5576480F8E5566480B4
:100DFA00985037120EEC7C007D08120A28AF05C005
:100E0A0007120EEC7C007D10120A28C004C00512DD
:100E1A000EEC7C007D04120A28AA04AB05D005D08A
:100E2A0004D007120F80055680BCAF55AE54120E7F
:030E3A003E809D5A
:010E3D002292
:100FC10012103B7F01120B82E4FF120614120ABFBA
:100FD1007F1E7E00120E3E754C05121184EF60E3F8
:100FE1007F01120F39E54F700D7BFF7A0079037D88
:0E0FF1000412078380EF12103BE4F54F80C519
:101200007D017C007FC8120DD47BFF7A00790F7DB1
:09121000041208C8120FC180E7A6
:03000000020CD619
:0C0CD600787FE4F6D8FD75816B020D1DDF
:1009E900BB010CE58229F582E5833AF583E02250C3
:1009F90006E92582F8E622BBFE06E92582F8E2220D
:0D0A0900E58229F582E5833AF583E4932226
:100A1600EF8DF0A4A8F0CF8CF0A428CE8DF0A42EF4
:020A2600FE22AE
:100A2800C2D5EC30E709B2D5E4C39DFDE49CFCEEE9
:100A380030E715B2D5E4C39FFFE49EFE120A6AC3ED
:100A4800E49DFDE49CFC8003120A6A30D507C3E4E8
:060A58009FFFE49EFE2258
:0C0A5E00A42582F582E5F03583F58322A3
:100EEC00AC68AD69AE6AAF6B7810EC4D4E4F7004C8
:100EFC007CA57DA5C3EC13FCED13FDEE13FEEF13E7
:100F0C00FF5010EC64CCFCED644CFDEE644EFEEF37
:100F1C0064CEFFD8DF8C688D698E6A8F6BEE547F40
:0D0F2C00FE228E688F6974A5F56AF56B22B0
:100CE200021200E493A3F8E493A34003F68001F216
:100CF20008DFF48029E493A3F85407240CC8C33313
:100D0200C4540F4420C8834004F456800146F6DFE1
:100D1200E4800B0102040810204080901219E47E46
:100D2200019360BCA3FF543F30E509541FFEE493D6
:100D3200A360010ECF54C025E060A840B8E493A39D
:100D4200FAE493A3F8E493A3C8C582C8CAC583CAC8
:100D5200F0A3C8C582C8CAC583CADFE9DEE780BE80
:01122E0000BF
:100A6A00BC000BBE0029EF8DF084FFADF022E4CC70
:100A7A00F875F008EF2FFFEE33FEEC33FCEE9DEC39
:100A8A00984005FCEE9DFE0FD5F0E9E4CEFD22ED7F
:100A9A00F8F5F0EE8420D21CFEADF075F008EF2FC9
:100AAA00FFED33FD4007985006D5F0F222C398FDBA
:050ABA000FD5F0EA2257
:00000001FF
